{
  "contractName": "APIConsumerContract",
  "abi": [
    {
      "inputs": [],
      "stateMutability": "nonpayable",
      "type": "constructor"
    },
    {
      "anonymous": false,
      "inputs": [
        {
          "indexed": true,
          "internalType": "bytes32",
          "name": "id",
          "type": "bytes32"
        }
      ],
      "name": "ChainlinkCancelled",
      "type": "event"
    },
    {
      "anonymous": false,
      "inputs": [
        {
          "indexed": true,
          "internalType": "bytes32",
          "name": "id",
          "type": "bytes32"
        }
      ],
      "name": "ChainlinkFulfilled",
      "type": "event"
    },
    {
      "anonymous": false,
      "inputs": [
        {
          "indexed": true,
          "internalType": "bytes32",
          "name": "id",
          "type": "bytes32"
        }
      ],
      "name": "ChainlinkRequested",
      "type": "event"
    },
    {
      "anonymous": false,
      "inputs": [
        {
          "indexed": true,
          "internalType": "address",
          "name": "from",
          "type": "address"
        },
        {
          "indexed": true,
          "internalType": "address",
          "name": "to",
          "type": "address"
        }
      ],
      "name": "OwnershipTransferRequested",
      "type": "event"
    },
    {
      "anonymous": false,
      "inputs": [
        {
          "indexed": true,
          "internalType": "address",
          "name": "from",
          "type": "address"
        },
        {
          "indexed": true,
          "internalType": "address",
          "name": "to",
          "type": "address"
        }
      ],
      "name": "OwnershipTransferred",
      "type": "event"
    },
    {
      "anonymous": false,
      "inputs": [
        {
          "indexed": true,
          "internalType": "bytes32",
          "name": "requestId",
          "type": "bytes32"
        },
        {
          "indexed": false,
          "internalType": "uint256",
          "name": "price",
          "type": "uint256"
        }
      ],
      "name": "RequestPrice",
      "type": "event"
    },
    {
      "inputs": [],
      "name": "acceptOwnership",
      "outputs": [],
      "stateMutability": "nonpayable",
      "type": "function"
    },
    {
      "inputs": [],
      "name": "owner",
      "outputs": [
        {
          "internalType": "address",
          "name": "",
          "type": "address"
        }
      ],
      "stateMutability": "view",
      "type": "function",
      "constant": true
    },
    {
      "inputs": [],
      "name": "price",
      "outputs": [
        {
          "internalType": "uint256",
          "name": "",
          "type": "uint256"
        }
      ],
      "stateMutability": "view",
      "type": "function",
      "constant": true
    },
    {
      "inputs": [
        {
          "internalType": "address",
          "name": "to",
          "type": "address"
        }
      ],
      "name": "transferOwnership",
      "outputs": [],
      "stateMutability": "nonpayable",
      "type": "function"
    },
    {
      "inputs": [
        {
          "internalType": "address",
          "name": "_oracle",
          "type": "address"
        },
        {
          "internalType": "string",
          "name": "_jobId",
          "type": "string"
        }
      ],
      "name": "requestPriceData",
      "outputs": [],
      "stateMutability": "nonpayable",
      "type": "function"
    },
    {
      "inputs": [
        {
          "internalType": "bytes32",
          "name": "_requestId",
          "type": "bytes32"
        },
        {
          "internalType": "uint256",
          "name": "_price",
          "type": "uint256"
        }
      ],
      "name": "fulfill",
      "outputs": [],
      "stateMutability": "nonpayable",
      "type": "function"
    },
    {
      "inputs": [],
      "name": "withdrawLink",
      "outputs": [],
      "stateMutability": "nonpayable",
      "type": "function"
    }
  ],
  "bytecode": "0x608060405260016004553480156200001657600080fd5b50338060008073ffffffffffffffffffffffffffffffffffffffff168273ffffffffffffffffffffffffffffffffffffffff16036200008c576040517f08c379a0000000000000000000000000000000000000000000000000000000008152600401620000839062000318565b60405180910390fd5b81600660006101000a81548173ffffffffffffffffffffffffffffffffffffffff021916908373ffffffffffffffffffffffffffffffffffffffff160217905550600073ffffffffffffffffffffffffffffffffffffffff168173ffffffffffffffffffffffffffffffffffffffff1614620001145762000113816200014260201b60201c565b5b5050506200013c73326c977e6efc84e512bb9c30f76e30c160ed06fb6200027360201b60201c565b620003ac565b3373ffffffffffffffffffffffffffffffffffffffff168173ffffffffffffffffffffffffffffffffffffffff1603620001b3576040517f08c379a0000000000000000000000000000000000000000000000000000000008152600401620001aa906200038a565b60405180910390fd5b80600760006101000a81548173ffffffffffffffffffffffffffffffffffffffff021916908373ffffffffffffffffffffffffffffffffffffffff1602179055508073ffffffffffffffffffffffffffffffffffffffff16600660009054906101000a900473ffffffffffffffffffffffffffffffffffffffff1673ffffffffffffffffffffffffffffffffffffffff167fed8889f560326eb138920d842192f0eb3dd22b4f139c87a2c57538e05bae127860405160405180910390a350565b80600260006101000a81548173ffffffffffffffffffffffffffffffffffffffff021916908373ffffffffffffffffffffffffffffffffffffffff16021790555050565b600082825260208201905092915050565b7f43616e6e6f7420736574206f776e657220746f207a65726f0000000000000000600082015250565b600062000300601883620002b7565b91506200030d82620002c8565b602082019050919050565b600060208201905081810360008301526200033381620002f1565b9050919050565b7f43616e6e6f74207472616e7366657220746f2073656c66000000000000000000600082015250565b600062000372601783620002b7565b91506200037f826200033a565b602082019050919050565b60006020820190508181036000830152620003a58162000363565b9050919050565b6120c880620003bc6000396000f3fe608060405234801561001057600080fd5b506004361061007d5760003560e01c80638da5cb5b1161005b5780638da5cb5b146100c45780638dc654a2146100e2578063a035b1fe146100ec578063f2fde38b1461010a5761007d565b8063325e331e146100825780634357855e1461009e57806379ba5097146100ba575b600080fd5b61009c60048036038101906100979190611528565b610126565b005b6100b860048036038101906100b391906115f0565b61029d565b005b6100c26103e6565b005b6100cc61057d565b6040516100d9919061163f565b60405180910390f35b6100ea6105a7565b005b6100f46106f4565b6040516101019190611669565b60405180910390f35b610124600480360381019061011f9190611684565b6106fa565b005b60006101426101348361070e565b30634357855e60e01b610737565b90506101a66040518060400160405280600381526020017f676574000000000000000000000000000000000000000000000000000000000081525060405180606001604052806023815260200161207060239139836107689092919063ffffffff16565b6102256040518060400160405280600481526020017f70617468000000000000000000000000000000000000000000000000000000008152506040518060400160405280600581526020017f7072696365000000000000000000000000000000000000000000000000000000815250836107689092919063ffffffff16565b6000620186a090506102776040518060400160405280600581526020017f74696d6573000000000000000000000000000000000000000000000000000000815250828461079b9092919063ffffffff16565b6102968483670de0b6b3a7640000600161029191906116e0565b6107ce565b5050505050565b816005600082815260200190815260200160002060009054906101000a900473ffffffffffffffffffffffffffffffffffffffff1673ffffffffffffffffffffffffffffffffffffffff163373ffffffffffffffffffffffffffffffffffffffff161461033f576040517f08c379a0000000000000000000000000000000000000000000000000000000008152600401610336906117bd565b60405180910390fd5b6005600082815260200190815260200160002060006101000a81549073ffffffffffffffffffffffffffffffffffffffff0219169055807f7cc135e0cebb02c3480ae5d74d377283180a2601f8f644edf7987b009316c63a60405160405180910390a2827f9a8cbabab41362fe534ea197eab0af0bfb16b084f9213b1f15ef6337d97dec15836040516103d29190611669565b60405180910390a281600881905550505050565b600760009054906101000a900473ffffffffffffffffffffffffffffffffffffffff1673ffffffffffffffffffffffffffffffffffffffff163373ffffffffffffffffffffffffffffffffffffffff1614610476576040517f08c379a000000000000000000000000000000000000000000000000000000000815260040161046d90611829565b60405180910390fd5b6000600660009054906101000a900473ffffffffffffffffffffffffffffffffffffffff16905033600660006101000a81548173ffffffffffffffffffffffffffffffffffffffff021916908373ffffffffffffffffffffffffffffffffffffffff1602179055506000600760006101000a81548173ffffffffffffffffffffffffffffffffffffffff021916908373ffffffffffffffffffffffffffffffffffffffff1602179055503373ffffffffffffffffffffffffffffffffffffffff168173ffffffffffffffffffffffffffffffffffffffff167f8be0079c531659141344cd1fd0a4f28419497f9722a3daafe3b4186f6b6457e060405160405180910390a350565b6000600660009054906101000a900473ffffffffffffffffffffffffffffffffffffffff16905090565b6105af61089a565b60006105b961092c565b90508073ffffffffffffffffffffffffffffffffffffffff1663a9059cbb338373ffffffffffffffffffffffffffffffffffffffff166370a08231306040518263ffffffff1660e01b8152600401610611919061163f565b602060405180830381865afa15801561062e573d6000803e3d6000fd5b505050506040513d601f19601f82011682018060405250810190610652919061185e565b6040518363ffffffff1660e01b815260040161066f92919061188b565b6020604051808303816000875af115801561068e573d6000803e3d6000fd5b505050506040513d601f19601f820116820180604052508101906106b291906118ec565b6106f1576040517f08c379a00000000000000000000000000000000000000000000000000000000081526004016106e890611965565b60405180910390fd5b50565b60085481565b61070261089a565b61070b81610956565b50565b6000808290506000815103610729576000801b915050610732565b60208301519150505b919050565b61073f6112e9565b6107476112e9565b61075e85858584610a84909392919063ffffffff16565b9150509392505050565b61077f828460800151610b3490919063ffffffff16565b610796818460800151610b3490919063ffffffff16565b505050565b6107b2828460800151610b3490919063ffffffff16565b6107c9818460800151610b5990919063ffffffff16565b505050565b60008060045490506001816107e39190611985565b6004819055506000634042994660e01b60008087600001513089604001518760018c6080015160000151604051602401610824989796959493929190611aad565b604051602081830303815290604052907bffffffffffffffffffffffffffffffffffffffffffffffffffffffff19166020820180517bffffffffffffffffffffffffffffffffffffffffffffffffffffffff8381831617835250505050905061088f86838684610c06565b925050509392505050565b600660009054906101000a900473ffffffffffffffffffffffffffffffffffffffff1673ffffffffffffffffffffffffffffffffffffffff163373ffffffffffffffffffffffffffffffffffffffff161461092a576040517f08c379a000000000000000000000000000000000000000000000000000000000815260040161092190611b7e565b60405180910390fd5b565b6000600260009054906101000a900473ffffffffffffffffffffffffffffffffffffffff16905090565b3373ffffffffffffffffffffffffffffffffffffffff168173ffffffffffffffffffffffffffffffffffffffff16036109c4576040517f08c379a00000000000000000000000000000000000000000000000000000000081526004016109bb90611bea565b60405180910390fd5b80600760006101000a81548173ffffffffffffffffffffffffffffffffffffffff021916908373ffffffffffffffffffffffffffffffffffffffff1602179055508073ffffffffffffffffffffffffffffffffffffffff16600660009054906101000a900473ffffffffffffffffffffffffffffffffffffffff1673ffffffffffffffffffffffffffffffffffffffff167fed8889f560326eb138920d842192f0eb3dd22b4f139c87a2c57538e05bae127860405160405180910390a350565b610a8c6112e9565b610a9c8560800151610100610d9b565b508385600001818152505082856020019073ffffffffffffffffffffffffffffffffffffffff16908173ffffffffffffffffffffffffffffffffffffffff16815250508185604001907bffffffffffffffffffffffffffffffffffffffffffffffffffffffff191690817bffffffffffffffffffffffffffffffffffffffffffffffffffffffff191681525050849050949350505050565b610b418260038351610e05565b610b548183610f8a90919063ffffffff16565b505050565b7fffffffffffffffffffffffffffffffffffffffffffffffff0000000000000000811215610b9057610b8b8282610fac565b610c02565b67ffffffffffffffff811315610baf57610baa8282611023565b610c01565b60008112610bc857610bc382600083610e05565b610c00565b610bff826001837fffffffffffffffffffffffffffffffffffffffffffffffffffffffffffffffff610bfa9190611c14565b610e05565b5b5b5b5050565b60003084604051602001610c1b929190611d61565b604051602081830303815290604052805190602001209050846005600083815260200190815260200160002060006101000a81548173ffffffffffffffffffffffffffffffffffffffff021916908373ffffffffffffffffffffffffffffffffffffffff160217905550807fb5e6e01e79f91267dc17b4e6314d5d4d03593d2ceee0fbb452b750bd70ea5af960405160405180910390a2600260009054906101000a900473ffffffffffffffffffffffffffffffffffffffff1673ffffffffffffffffffffffffffffffffffffffff16634000aea08685856040518463ffffffff1660e01b8152600401610d1193929190611d8d565b6020604051808303816000875af1158015610d30573d6000803e3d6000fd5b505050506040513d601f19601f82011682018060405250810190610d5491906118ec565b610d93576040517f08c379a0000000000000000000000000000000000000000000000000000000008152600401610d8a90611e3d565b60405180910390fd5b949350505050565b610da3611356565b6000602083610db29190611e8c565b14610dde57602082610dc49190611e8c565b6020610dd09190611ebd565b82610ddb9190611985565b91505b81836020018181525050604051808452600081528281016020016040525082905092915050565b60178167ffffffffffffffff1611610e3c57610e368160058460ff16901b60ff16178461106f90919063ffffffff16565b50610f85565b60ff8167ffffffffffffffff1611610e9257610e6b601860058460ff16901b178461106f90919063ffffffff16565b50610e8c8167ffffffffffffffff1660018561108f9092919063ffffffff16565b50610f84565b61ffff8167ffffffffffffffff1611610ee957610ec2601960058460ff16901b178461106f90919063ffffffff16565b50610ee38167ffffffffffffffff1660028561108f9092919063ffffffff16565b50610f83565b63ffffffff8167ffffffffffffffff1611610f4257610f1b601a60058460ff16901b178461106f90919063ffffffff16565b50610f3c8167ffffffffffffffff1660048561108f9092919063ffffffff16565b50610f82565b610f5f601b60058460ff16901b178461106f90919063ffffffff16565b50610f808167ffffffffffffffff1660088561108f9092919063ffffffff16565b505b5b5b5b505050565b610f92611356565b610fa4838460000151518485516110b1565b905092915050565b610fca60036005600660ff16901b178361106f90919063ffffffff16565b5061101f82827fffffffffffffffffffffffffffffffffffffffffffffffffffffffffffffffff610ffb9190611c14565b60405160200161100b9190611669565b6040516020818303038152906040526111a0565b5050565b61104160026005600660ff16901b178361106f90919063ffffffff16565b5061106b82826040516020016110579190611669565b6040516020818303038152906040526111a0565b5050565b611077611356565b61108783846000015151846111c5565b905092915050565b611097611356565b6110a884856000015151858561121b565b90509392505050565b6110b9611356565b82518211156110c757600080fd5b846020015182856110d89190611985565b111561110d5761110c8560026110fd886020015188876110f89190611985565b6112a9565b61110791906116e0565b6112c5565b5b60008086518051876020830101935080888701111561112c5787860182525b60208701925050505b60208410611173578051825260208261114e9190611985565b915060208161115d9190611985565b905060208461116c9190611ebd565b9350611135565b60006001856020036101000a03905080198251168184511681811785525050508692505050949350505050565b6111ad8260028351610e05565b6111c08183610f8a90919063ffffffff16565b505050565b6111cd611356565b836020015183106111f3576111f284600286602001516111ed91906116e0565b6112c5565b5b8351805160208583010184815381860361120e576001820183525b5050508390509392505050565b611223611356565b846020015184836112349190611985565b111561125c5761125b856002868561124c9190611985565b61125691906116e0565b6112c5565b5b600060018361010061126e9190612024565b6112789190611ebd565b9050855183868201018583198251161781528151858801111561129b5784870182525b505085915050949350505050565b6000818311156112bb578290506112bf565b8190505b92915050565b6000826000015190506112d88383610d9b565b506112e38382610f8a565b50505050565b6040518060a0016040528060008019168152602001600073ffffffffffffffffffffffffffffffffffffffff16815260200160007bffffffffffffffffffffffffffffffffffffffffffffffffffffffff1916815260200160008152602001611350611356565b81525090565b604051806040016040528060608152602001600081525090565b6000604051905090565b600080fd5b600080fd5b600073ffffffffffffffffffffffffffffffffffffffff82169050919050565b60006113af82611384565b9050919050565b6113bf816113a4565b81146113ca57600080fd5b50565b6000813590506113dc816113b6565b92915050565b600080fd5b600080fd5b6000601f19601f8301169050919050565b7f4e487b7100000000000000000000000000000000000000000000000000000000600052604160045260246000fd5b611435826113ec565b810181811067ffffffffffffffff82111715611454576114536113fd565b5b80604052505050565b6000611467611370565b9050611473828261142c565b919050565b600067ffffffffffffffff821115611493576114926113fd565b5b61149c826113ec565b9050602081019050919050565b82818337600083830152505050565b60006114cb6114c684611478565b61145d565b9050828152602081018484840111156114e7576114e66113e7565b5b6114f28482856114a9565b509392505050565b600082601f83011261150f5761150e6113e2565b5b813561151f8482602086016114b8565b91505092915050565b6000806040838503121561153f5761153e61137a565b5b600061154d858286016113cd565b925050602083013567ffffffffffffffff81111561156e5761156d61137f565b5b61157a858286016114fa565b9150509250929050565b6000819050919050565b61159781611584565b81146115a257600080fd5b50565b6000813590506115b48161158e565b92915050565b6000819050919050565b6115cd816115ba565b81146115d857600080fd5b50565b6000813590506115ea816115c4565b92915050565b600080604083850312156116075761160661137a565b5b6000611615858286016115a5565b9250506020611626858286016115db565b9150509250929050565b611639816113a4565b82525050565b60006020820190506116546000830184611630565b92915050565b611663816115ba565b82525050565b600060208201905061167e600083018461165a565b92915050565b60006020828403121561169a5761169961137a565b5b60006116a8848285016113cd565b91505092915050565b7f4e487b7100000000000000000000000000000000000000000000000000000000600052601160045260246000fd5b60006116eb826115ba565b91506116f6836115ba565b9250817fffffffffffffffffffffffffffffffffffffffffffffffffffffffffffffffff048311821515161561172f5761172e6116b1565b5b828202905092915050565b600082825260208201905092915050565b7f536f75726365206d75737420626520746865206f7261636c65206f662074686560008201527f2072657175657374000000000000000000000000000000000000000000000000602082015250565b60006117a760288361173a565b91506117b28261174b565b604082019050919050565b600060208201905081810360008301526117d68161179a565b9050919050565b7f4d7573742062652070726f706f736564206f776e657200000000000000000000600082015250565b600061181360168361173a565b915061181e826117dd565b602082019050919050565b6000602082019050818103600083015261184281611806565b9050919050565b600081519050611858816115c4565b92915050565b6000602082840312156118745761187361137a565b5b600061188284828501611849565b91505092915050565b60006040820190506118a06000830185611630565b6118ad602083018461165a565b9392505050565b60008115159050919050565b6118c9816118b4565b81146118d457600080fd5b50565b6000815190506118e6816118c0565b92915050565b6000602082840312156119025761190161137a565b5b6000611910848285016118d7565b91505092915050565b7f556e61626c6520746f207472616e736665720000000000000000000000000000600082015250565b600061194f60128361173a565b915061195a82611919565b602082019050919050565b6000602082019050818103600083015261197e81611942565b9050919050565b6000611990826115ba565b915061199b836115ba565b9250827fffffffffffffffffffffffffffffffffffffffffffffffffffffffffffffffff038211156119d0576119cf6116b1565b5b828201905092915050565b6119e481611584565b82525050565b60007fffffffff0000000000000000000000000000000000000000000000000000000082169050919050565b611a1f816119ea565b82525050565b600081519050919050565b600082825260208201905092915050565b60005b83811015611a5f578082015181840152602081019050611a44565b83811115611a6e576000848401525b50505050565b6000611a7f82611a25565b611a898185611a30565b9350611a99818560208601611a41565b611aa2816113ec565b840191505092915050565b600061010082019050611ac3600083018b611630565b611ad0602083018a61165a565b611add60408301896119db565b611aea6060830188611630565b611af76080830187611a16565b611b0460a083018661165a565b611b1160c083018561165a565b81810360e0830152611b238184611a74565b90509998505050505050505050565b7f4f6e6c792063616c6c61626c65206279206f776e657200000000000000000000600082015250565b6000611b6860168361173a565b9150611b7382611b32565b602082019050919050565b60006020820190508181036000830152611b9781611b5b565b9050919050565b7f43616e6e6f74207472616e7366657220746f2073656c66000000000000000000600082015250565b6000611bd460178361173a565b9150611bdf82611b9e565b602082019050919050565b60006020820190508181036000830152611c0381611bc7565b9050919050565b6000819050919050565b6000611c1f82611c0a565b9150611c2a83611c0a565b9250827f800000000000000000000000000000000000000000000000000000000000000001821260008412151615611c6557611c646116b1565b5b827f7fffffffffffffffffffffffffffffffffffffffffffffffffffffffffffffff018213600084121615611c9d57611c9c6116b1565b5b828203905092915050565b6000819050919050565b6000611ccd611cc8611cc384611384565b611ca8565b611384565b9050919050565b6000611cdf82611cb2565b9050919050565b6000611cf182611cd4565b9050919050565b60008160601b9050919050565b6000611d1082611cf8565b9050919050565b6000611d2282611d05565b9050919050565b611d3a611d3582611ce6565b611d17565b82525050565b6000819050919050565b611d5b611d56826115ba565b611d40565b82525050565b6000611d6d8285611d29565b601482019150611d7d8284611d4a565b6020820191508190509392505050565b6000606082019050611da26000830186611630565b611daf602083018561165a565b8181036040830152611dc18184611a74565b9050949350505050565b7f756e61626c6520746f207472616e73666572416e6443616c6c20746f206f726160008201527f636c650000000000000000000000000000000000000000000000000000000000602082015250565b6000611e2760238361173a565b9150611e3282611dcb565b604082019050919050565b60006020820190508181036000830152611e5681611e1a565b9050919050565b7f4e487b7100000000000000000000000000000000000000000000000000000000600052601260045260246000fd5b6000611e97826115ba565b9150611ea2836115ba565b925082611eb257611eb1611e5d565b5b828206905092915050565b6000611ec8826115ba565b9150611ed3836115ba565b925082821015611ee657611ee56116b1565b5b828203905092915050565b60008160011c9050919050565b6000808291508390505b6001851115611f4857808604811115611f2457611f236116b1565b5b6001851615611f335780820291505b8081029050611f4185611ef1565b9450611f08565b94509492505050565b600082611f61576001905061201d565b81611f6f576000905061201d565b8160018114611f855760028114611f8f57611fbe565b600191505061201d565b60ff841115611fa157611fa06116b1565b5b8360020a915084821115611fb857611fb76116b1565b5b5061201d565b5060208310610133831016604e8410600b8410161715611ff35782820a905083811115611fee57611fed6116b1565b5b61201d565b6120008484846001611efe565b92509050818404811115612017576120166116b1565b5b81810290505b9392505050565b600061202f826115ba565b915061203a836115ba565b92506120677fffffffffffffffffffffffffffffffffffffffffffffffffffffffffffffffff8484611f51565b90509291505056fe687474703a2f2f6c6f63616c686f73743a353030322f6170692f70726963652f657468a2646970667358221220965c06b57667af00d721c85ea504011fc75f6ef72d921e7b681c4159463c8c1264736f6c634300080f0033",
  "immutableReferences": {},
  "source": "// SPDX-License-Identifier: MIT\npragma solidity ^0.8.7;\n/*\nimporting the chainlink client for building and sending request\nto the oracle\n**second import is of setting the ownership of the contract\n*/\nimport '@chainlink/contracts/src/v0.8/ChainlinkClient.sol';\nimport '@chainlink/contracts/src/v0.8/ConfirmedOwner.sol';\n\n\ncontract APIConsumerContract is ChainlinkClient, ConfirmedOwner {\n\n    //using only the chainlink request structure \n    using Chainlink for Chainlink.Request;\n\n    uint256 public price;\n    bytes32 private jobId;\n    uint256 private constant fee = 1 * LINK_DIVISIBILITY; // 1 * 10**18\n\n    event RequestPrice(bytes32 indexed requestId, uint256 price);\n\n    /**\n     * @notice Initialize the link token and target oracle\n     *\n     * Goerli Testnet details:\n     * Link Token: 0x326C977E6efc84E512bB9C30f76E30c160eD06FB\n     * it will its parent contract for setting the ownership \n     */\n    constructor() ConfirmedOwner(msg.sender) {\n        setChainlinkToken(0x326C977E6efc84E512bB9C30f76E30c160eD06FB);\n    }\n\n    /**\n     * Create a Chainlink request to retrieve API response, find the target\n     * data, then multiply by 100000 (to remove decimal places from data).\n     */\n    function requestPriceData(address _oracle, string memory _jobId) public {\n        Chainlink.Request memory req = buildChainlinkRequest(\n            stringToBytes32(_jobId), \n            address(this), \n            this.fulfill.selector\n            );\n\n        // Set the URL to perform the GET request on\n        req.add('get', 'http://localhost:5002/api/price/eth');\n\n       \n\n        req.add('path', 'price'); // Chainlink nodes 1.0.0 and later support this format\n\n        // Multiply the result by 100000 to remove decimals\n        int256 timesAmount = 10**5;\n        req.addInt('times', timesAmount);\n\n        // Sends the request\n        sendChainlinkRequestTo(_oracle, req, fee);\n    }\n\n    /**\n     * Receive the response in the form of uint256\n     */\n    function fulfill(bytes32 _requestId, uint256 _price) public recordChainlinkFulfillment(_requestId) {\n        emit RequestPrice(_requestId, _price);\n        price = _price;\n    }\n\n    /**\n     * Allow withdraw of Link tokens from the contract\n     */\n    function withdrawLink() public onlyOwner {\n        LinkTokenInterface link = LinkTokenInterface(chainlinkTokenAddress());\n        require(link.transfer(msg.sender, link.balanceOf(address(this))), 'Unable to transfer');\n    }\n\n    //used when building the request because it accepts the job id to be in bytes\n    function stringToBytes32(string memory source) private pure returns (bytes32 result) {\n        bytes memory tempEmptyStringTest = bytes(source);\n        if (tempEmptyStringTest.length == 0) {\n            return 0x0;\n        }\n\n        assembly {\n            // solhint-disable-line no-inline-assembly\n            result := mload(add(source, 32))\n        }\n    }\n}\n",
  "sourcePath": "/home/himanshu/Practice/Blockchain_Solidity/packages/ApiConsumerChainlink/contracts/ApiConsumerContract.sol",
  "compiler": {
    "name": "solc",
    "version": "0.8.15+commit.e14f2714.Emscripten.clang"
  },
  "schemaVersion": "3.4.8",
  "updatedAt": "2022-09-13T07:59:42.485Z",
  "networkType": "ethereum",
  "devdoc": {
    "kind": "dev",
    "methods": {},
    "version": 1
  },
  "userdoc": {
    "kind": "user",
    "methods": {
      "acceptOwnership()": {
        "notice": "Allows an ownership transfer to be completed by the recipient."
      },
      "constructor": {
        "notice": "Initialize the link token and target oracle Goerli Testnet details: Link Token: 0x326C977E6efc84E512bB9C30f76E30c160eD06FB it will its parent contract for setting the ownership "
      },
      "fulfill(bytes32,uint256)": {
        "notice": "Receive the response in the form of uint256"
      },
      "owner()": {
        "notice": "Get the current owner"
      },
      "requestPriceData(address,string)": {
        "notice": "Create a Chainlink request to retrieve API response, find the target data, then multiply by 100000 (to remove decimal places from data)."
      },
      "transferOwnership(address)": {
        "notice": "Allows an owner to begin transferring ownership to a new address, pending."
      },
      "withdrawLink()": {
        "notice": "Allow withdraw of Link tokens from the contract"
      }
    },
    "version": 1
  }
}