{
  "contractName": "PublishVerifyHash",
  "abi": [
    {
      "inputs": [
        {
          "internalType": "string",
          "name": "",
          "type": "string"
        }
      ],
      "name": "isTaken",
      "outputs": [
        {
          "internalType": "bool",
          "name": "",
          "type": "bool"
        }
      ],
      "stateMutability": "view",
      "type": "function",
      "constant": true
    },
    {
      "inputs": [
        {
          "internalType": "address",
          "name": "add",
          "type": "address"
        }
      ],
      "name": "viewHashes",
      "outputs": [
        {
          "internalType": "string[]",
          "name": "",
          "type": "string[]"
        }
      ],
      "stateMutability": "view",
      "type": "function",
      "constant": true
    },
    {
      "inputs": [
        {
          "internalType": "string",
          "name": "_hash",
          "type": "string"
        }
      ],
      "name": "takeInput",
      "outputs": [
        {
          "internalType": "bool",
          "name": "",
          "type": "bool"
        }
      ],
      "stateMutability": "nonpayable",
      "type": "function"
    }
  ],
  "bytecode": "0x608060405234801561001057600080fd5b50610a5e806100206000396000f3fe608060405234801561001057600080fd5b50600436106100415760003560e01c8063258adde21461004657806361c7774d14610076578063ec4f6836146100a6575b600080fd5b610060600480360381019061005b9190610477565b6100d6565b60405161006d91906104db565b60405180910390f35b610090600480360381019061008b9190610477565b61010c565b60405161009d91906104db565b60405180910390f35b6100c060048036038101906100bb9190610554565b6101d1565b6040516100cd91906106cb565b60405180910390f35b6001818051602081018201805184825260208301602085012081835280955050505050506000915054906101000a900460ff1681565b6000610117826102e8565b1561012157600080fd5b6000803373ffffffffffffffffffffffffffffffffffffffff1673ffffffffffffffffffffffffffffffffffffffff168152602001908152602001600020829080600181540180825580915050600190039060005260206000200160009091909190915090816101919190610903565b50600180836040516101a39190610a11565b908152602001604051809103902060006101000a81548160ff02191690831515021790555060019050919050565b60606000808373ffffffffffffffffffffffffffffffffffffffff1673ffffffffffffffffffffffffffffffffffffffff168152602001908152602001600020805480602002602001604051908101604052809291908181526020016000905b828210156102dd5783829060005260206000200180546102509061071c565b80601f016020809104026020016040519081016040528092919081815260200182805461027c9061071c565b80156102c95780601f1061029e576101008083540402835291602001916102c9565b820191906000526020600020905b8154815290600101906020018083116102ac57829003601f168201915b505050505081526020019060010190610231565b505050509050919050565b60006001826040516102fa9190610a11565b908152602001604051809103902060009054906101000a900460ff169050919050565b6000604051905090565b600080fd5b600080fd5b600080fd5b600080fd5b6000601f19601f8301169050919050565b7f4e487b7100000000000000000000000000000000000000000000000000000000600052604160045260246000fd5b6103848261033b565b810181811067ffffffffffffffff821117156103a3576103a261034c565b5b80604052505050565b60006103b661031d565b90506103c2828261037b565b919050565b600067ffffffffffffffff8211156103e2576103e161034c565b5b6103eb8261033b565b9050602081019050919050565b82818337600083830152505050565b600061041a610415846103c7565b6103ac565b90508281526020810184848401111561043657610435610336565b5b6104418482856103f8565b509392505050565b600082601f83011261045e5761045d610331565b5b813561046e848260208601610407565b91505092915050565b60006020828403121561048d5761048c610327565b5b600082013567ffffffffffffffff8111156104ab576104aa61032c565b5b6104b784828501610449565b91505092915050565b60008115159050919050565b6104d5816104c0565b82525050565b60006020820190506104f060008301846104cc565b92915050565b600073ffffffffffffffffffffffffffffffffffffffff82169050919050565b6000610521826104f6565b9050919050565b61053181610516565b811461053c57600080fd5b50565b60008135905061054e81610528565b92915050565b60006020828403121561056a57610569610327565b5b60006105788482850161053f565b91505092915050565b600081519050919050565b600082825260208201905092915050565b6000819050602082019050919050565b600081519050919050565b600082825260208201905092915050565b60005b838110156105e75780820151818401526020810190506105cc565b838111156105f6576000848401525b50505050565b6000610607826105ad565b61061181856105b8565b93506106218185602086016105c9565b61062a8161033b565b840191505092915050565b600061064183836105fc565b905092915050565b6000602082019050919050565b600061066182610581565b61066b818561058c565b93508360208202850161067d8561059d565b8060005b858110156106b9578484038952815161069a8582610635565b94506106a583610649565b925060208a01995050600181019050610681565b50829750879550505050505092915050565b600060208201905081810360008301526106e58184610656565b905092915050565b7f4e487b7100000000000000000000000000000000000000000000000000000000600052602260045260246000fd5b6000600282049050600182168061073457607f821691505b602082108103610747576107466106ed565b5b50919050565b60008190508160005260206000209050919050565b60006020601f8301049050919050565b600082821b905092915050565b6000600883026107af7fffffffffffffffffffffffffffffffffffffffffffffffffffffffffffffffff82610772565b6107b98683610772565b95508019841693508086168417925050509392505050565b6000819050919050565b6000819050919050565b60006108006107fb6107f6846107d1565b6107db565b6107d1565b9050919050565b6000819050919050565b61081a836107e5565b61082e61082682610807565b84845461077f565b825550505050565b600090565b610843610836565b61084e818484610811565b505050565b5b818110156108725761086760008261083b565b600181019050610854565b5050565b601f8211156108b7576108888161074d565b61089184610762565b810160208510156108a0578190505b6108b46108ac85610762565b830182610853565b50505b505050565b600082821c905092915050565b60006108da600019846008026108bc565b1980831691505092915050565b60006108f383836108c9565b9150826002028217905092915050565b61090c826105ad565b67ffffffffffffffff8111156109255761092461034c565b5b61092f825461071c565b61093a828285610876565b600060209050601f83116001811461096d576000841561095b578287015190505b61096585826108e7565b8655506109cd565b601f19841661097b8661074d565b60005b828110156109a35784890151825560018201915060208501945060208101905061097e565b868310156109c057848901516109bc601f8916826108c9565b8355505b6001600288020188555050505b505050505050565b600081905092915050565b60006109eb826105ad565b6109f581856109d5565b9350610a058185602086016105c9565b80840191505092915050565b6000610a1d82846109e0565b91508190509291505056fea264697066735822122025b2d36b1e80187958b6512f81b08fd720bfb150c0ad77b7759a360d43abc60f64736f6c634300080f0033",
  "immutableReferences": {},
  "source": "// SPDX-License-Identifier: MIT\n\npragma solidity >=0.7.0 <0.9.0;\n\n\ncontract PublishVerifyHash {\n    \n    //mapping from address to array of hashes which user stores\n    mapping(address=>string[]) Hash;\n    //checking whether the hash is taken or not \n    mapping(string => bool) public isTaken;\n\n    //function for viewing all the stored hashes\n    function viewHashes(address add) public view returns(string[] memory){\n        return (Hash[add]);\n    }\n    \n    //function for verifying the hash whether it is taken or not\n    function verify(string memory inputHash) private view returns (bool) {\n        return (isTaken[inputHash]);\n    }\n\n    //function for taking the hash and verfying and then storing \n    function takeInput(string memory _hash) public returns(bool){\n        require(!verify(_hash));\n        Hash[msg.sender].push(_hash);\n        isTaken[_hash] = true;\n        return true;\n    }\n  \n}\n",
  "sourcePath": "/home/himanshu/Practice/Blockchain_Solidity/packages/Publish_Hashes/contracts/PublishHashes.sol",
  "compiler": {
    "name": "solc",
    "version": "0.8.15+commit.e14f2714.Emscripten.clang"
  },
  "schemaVersion": "3.4.8",
  "updatedAt": "2022-09-13T09:53:09.301Z",
  "networkType": "ethereum",
  "devdoc": {
    "kind": "dev",
    "methods": {},
    "version": 1
  },
  "userdoc": {
    "kind": "user",
    "methods": {},
    "version": 1
  }
}