{
  "contractName": "storeDetails",
  "abi": [
    {
      "inputs": [],
      "stateMutability": "nonpayable",
      "type": "constructor"
    },
    {
      "anonymous": false,
      "inputs": [
        {
          "indexed": false,
          "internalType": "bytes32",
          "name": "_certificateId",
          "type": "bytes32"
        }
      ],
      "name": "certificateGenerated",
      "type": "event"
    },
    {
      "inputs": [],
      "name": "owner",
      "outputs": [
        {
          "internalType": "address",
          "name": "",
          "type": "address"
        }
      ],
      "stateMutability": "view",
      "type": "function",
      "constant": true
    },
    {
      "inputs": [
        {
          "internalType": "bytes32",
          "name": "hash",
          "type": "bytes32"
        }
      ],
      "name": "viewDocuments",
      "outputs": [
        {
          "internalType": "uint256",
          "name": "registrationNumber",
          "type": "uint256"
        },
        {
          "internalType": "string",
          "name": "studentName",
          "type": "string"
        },
        {
          "internalType": "string",
          "name": "instituteName",
          "type": "string"
        }
      ],
      "stateMutability": "view",
      "type": "function",
      "constant": true
    },
    {
      "inputs": [
        {
          "internalType": "bytes32",
          "name": "inputHash",
          "type": "bytes32"
        }
      ],
      "name": "verifyHash",
      "outputs": [
        {
          "internalType": "bool",
          "name": "",
          "type": "bool"
        }
      ],
      "stateMutability": "view",
      "type": "function",
      "constant": true
    },
    {
      "inputs": [
        {
          "internalType": "bytes32",
          "name": "hash",
          "type": "bytes32"
        },
        {
          "internalType": "uint256",
          "name": "_registrationNumber",
          "type": "uint256"
        },
        {
          "internalType": "string",
          "name": "studentName",
          "type": "string"
        },
        {
          "internalType": "string",
          "name": "instituteName",
          "type": "string"
        }
      ],
      "name": "createStudentRecord",
      "outputs": [],
      "stateMutability": "nonpayable",
      "type": "function"
    }
  ],
  "bytecode": "0x608060405234801561001057600080fd5b50336000806101000a81548173ffffffffffffffffffffffffffffffffffffffff021916908373ffffffffffffffffffffffffffffffffffffffff160217905550610c7d806100606000396000f3fe608060405234801561001057600080fd5b506004361061004c5760003560e01c806327aa7c3c146100515780638da5cb5b14610083578063d0190cc7146100a1578063ef020f4a146100bd575b600080fd5b61006b600480360381019061006691906104b1565b6100ed565b60405161007a93929190610590565b60405180910390f35b61008b6102a2565b6040516100989190610616565b60405180910390f35b6100bb60048036038101906100b69190610792565b6102c6565b005b6100d760048036038101906100d291906104b1565b61043a565b6040516100e4919061084c565b60405180910390f35b60006060806100fb8461043a565b61013a576040517f08c379a0000000000000000000000000000000000000000000000000000000008152600401610131906108b3565b60405180910390fd5b6001600085815260200190815260200160002060000154600160008681526020019081526020016000206001016001600087815260200190815260200160002060020181805461018990610902565b80601f01602080910402602001604051908101604052809291908181526020018280546101b590610902565b80156102025780601f106101d757610100808354040283529160200191610202565b820191906000526020600020905b8154815290600101906020018083116101e557829003601f168201915b5050505050915080805461021590610902565b80601f016020809104026020016040519081016040528092919081815260200182805461024190610902565b801561028e5780601f106102635761010080835404028352916020019161028e565b820191906000526020600020905b81548152906001019060200180831161027157829003601f168201915b505050505090509250925092509193909250565b60008054906101000a900473ffffffffffffffffffffffffffffffffffffffff1681565b60008054906101000a900473ffffffffffffffffffffffffffffffffffffffff1673ffffffffffffffffffffffffffffffffffffffff163373ffffffffffffffffffffffffffffffffffffffff161461031e57600080fd5b6103278461043a565b15610367576040517f08c379a000000000000000000000000000000000000000000000000000000000815260040161035e9061097f565b60405180910390fd5b6000604051806080016040528085815260200184815260200183815260200160011515815250905080600160008781526020019081526020016000206000820151816000015560208201518160010190816103c29190610b4b565b5060408201518160020190816103d89190610b4b565b5060608201518160030160006101000a81548160ff0219169083151502179055509050507ff54e0f0055ffae318a21890316ed523f8a60aa59aaa279dfdcae7176155ec0db8560405161042b9190610c2c565b60405180910390a15050505050565b60006001600083815260200190815260200160002060030160009054906101000a900460ff169050919050565b6000604051905090565b600080fd5b600080fd5b6000819050919050565b61048e8161047b565b811461049957600080fd5b50565b6000813590506104ab81610485565b92915050565b6000602082840312156104c7576104c6610471565b5b60006104d58482850161049c565b91505092915050565b6000819050919050565b6104f1816104de565b82525050565b600081519050919050565b600082825260208201905092915050565b60005b83811015610531578082015181840152602081019050610516565b83811115610540576000848401525b50505050565b6000601f19601f8301169050919050565b6000610562826104f7565b61056c8185610502565b935061057c818560208601610513565b61058581610546565b840191505092915050565b60006060820190506105a560008301866104e8565b81810360208301526105b78185610557565b905081810360408301526105cb8184610557565b9050949350505050565b600073ffffffffffffffffffffffffffffffffffffffff82169050919050565b6000610600826105d5565b9050919050565b610610816105f5565b82525050565b600060208201905061062b6000830184610607565b92915050565b61063a816104de565b811461064557600080fd5b50565b60008135905061065781610631565b92915050565b600080fd5b600080fd5b7f4e487b7100000000000000000000000000000000000000000000000000000000600052604160045260246000fd5b61069f82610546565b810181811067ffffffffffffffff821117156106be576106bd610667565b5b80604052505050565b60006106d1610467565b90506106dd8282610696565b919050565b600067ffffffffffffffff8211156106fd576106fc610667565b5b61070682610546565b9050602081019050919050565b82818337600083830152505050565b6000610735610730846106e2565b6106c7565b90508281526020810184848401111561075157610750610662565b5b61075c848285610713565b509392505050565b600082601f8301126107795761077861065d565b5b8135610789848260208601610722565b91505092915050565b600080600080608085870312156107ac576107ab610471565b5b60006107ba8782880161049c565b94505060206107cb87828801610648565b935050604085013567ffffffffffffffff8111156107ec576107eb610476565b5b6107f887828801610764565b925050606085013567ffffffffffffffff81111561081957610818610476565b5b61082587828801610764565b91505092959194509250565b60008115159050919050565b61084681610831565b82525050565b6000602082019050610861600083018461083d565b92915050565b7f646f63756d656e7420696420697320696e76616c696400000000000000000000600082015250565b600061089d601683610502565b91506108a882610867565b602082019050919050565b600060208201905081810360008301526108cc81610890565b9050919050565b7f4e487b7100000000000000000000000000000000000000000000000000000000600052602260045260246000fd5b6000600282049050600182168061091a57607f821691505b60208210810361092d5761092c6108d3565b5b50919050565b7f5265636f726420616c7265616479206578697374730000000000000000000000600082015250565b6000610969601583610502565b915061097482610933565b602082019050919050565b600060208201905081810360008301526109988161095c565b9050919050565b60008190508160005260206000209050919050565b60006020601f8301049050919050565b600082821b905092915050565b600060088302610a017fffffffffffffffffffffffffffffffffffffffffffffffffffffffffffffffff826109c4565b610a0b86836109c4565b95508019841693508086168417925050509392505050565b6000819050919050565b6000610a48610a43610a3e846104de565b610a23565b6104de565b9050919050565b6000819050919050565b610a6283610a2d565b610a76610a6e82610a4f565b8484546109d1565b825550505050565b600090565b610a8b610a7e565b610a96818484610a59565b505050565b5b81811015610aba57610aaf600082610a83565b600181019050610a9c565b5050565b601f821115610aff57610ad08161099f565b610ad9846109b4565b81016020851015610ae8578190505b610afc610af4856109b4565b830182610a9b565b50505b505050565b600082821c905092915050565b6000610b2260001984600802610b04565b1980831691505092915050565b6000610b3b8383610b11565b9150826002028217905092915050565b610b54826104f7565b67ffffffffffffffff811115610b6d57610b6c610667565b5b610b778254610902565b610b82828285610abe565b600060209050601f831160018114610bb55760008415610ba3578287015190505b610bad8582610b2f565b865550610c15565b601f198416610bc38661099f565b60005b82811015610beb57848901518255600182019150602085019450602081019050610bc6565b86831015610c085784890151610c04601f891682610b11565b8355505b6001600288020188555050505b505050505050565b610c268161047b565b82525050565b6000602082019050610c416000830184610c1d565b9291505056fea2646970667358221220638b62b4a7f44ef4ea0ed35f8df35a8199e1ff7b5ff95f55fb72d9a0fcc9409464736f6c634300080f0033",
  "immutableReferences": {},
  "source": "// SPDX-License-Identifier: UNLICENSED\n\npragma solidity >=0.7.0 <0.9.0;\n\n\ncontract storeDetails{\n    //Student Data type for storing the student records \n    struct Student{\n        uint registrationNumber;\n        string studentName;\n        string instituteName;\n        bool exists;\n    }\n    //only educational institute can add\n    address public owner;\n    event certificateGenerated(bytes32 _certificateId);\n\n    //This contract will be deployed by the manager \n    constructor()\n    {\n\n        //msg is a global variable and when we deploy the contract it will take the address of the manager account \n        owner = msg.sender;\n\n    } \n\n    //mapping from hash to student record \n    mapping (bytes32 => Student) documents;\n    function viewDocuments(bytes32 hash) public view returns(uint registrationNumber, string memory studentName, string memory instituteName){\n        require(verifyHash(hash), \"document id is invalid\");\n        return (documents[hash].registrationNumber, documents[hash].studentName, documents[hash].instituteName);\n    }\n    \n    //verifying the hash of the student record \n    function verifyHash(bytes32 inputHash) public view returns (bool) {\n        return (documents[inputHash].exists);\n    }\n\n    //Adding student record\n    function createStudentRecord(bytes32 hash, uint _registrationNumber, string memory studentName, string memory instituteName) public{\n        //only educational institute can add\n        require(msg.sender == owner);\n\n        require(!verifyHash(hash), \"Record already exists\");\n        Student memory newStudent = Student(_registrationNumber, studentName, instituteName, true);\n        documents[hash] = newStudent;\n        emit certificateGenerated(hash);\n\n       \n    } \n}",
  "sourcePath": "/home/himanshu/Practice/Blockchain_Solidity/packages/StudentDetails/contracts/storeDetails.sol",
  "compiler": {
    "name": "solc",
    "version": "0.8.15+commit.e14f2714.Emscripten.clang"
  },
  "schemaVersion": "3.4.8",
  "updatedAt": "2022-09-13T16:35:14.325Z",
  "networkType": "ethereum",
  "devdoc": {
    "kind": "dev",
    "methods": {},
    "version": 1
  },
  "userdoc": {
    "kind": "user",
    "methods": {},
    "version": 1
  }
}