{
  "contractName": "Caller",
  "abi": [
    {
      "anonymous": false,
      "inputs": [
        {
          "indexed": false,
          "internalType": "bool",
          "name": "success",
          "type": "bool"
        }
      ],
      "name": "Response",
      "type": "event"
    },
    {
      "inputs": [
        {
          "internalType": "address payable",
          "name": "_addr",
          "type": "address"
        }
      ],
      "name": "testCallFoo",
      "outputs": [],
      "stateMutability": "payable",
      "type": "function",
      "payable": true
    },
    {
      "inputs": [
        {
          "internalType": "address",
          "name": "_addr",
          "type": "address"
        }
      ],
      "name": "testCallDoesNotExist",
      "outputs": [],
      "stateMutability": "nonpayable",
      "type": "function"
    }
  ],
  "bytecode": "0x608060405234801561001057600080fd5b506105ae806100206000396000f3fe6080604052600436106100295760003560e01c806387ba61791461002e578063ff00726c1461004a575b600080fd5b6100486004803603810190610043919061033c565b610073565b005b34801561005657600080fd5b50610071600480360381019061006c91906103a7565b6101af565b005b60008173ffffffffffffffffffffffffffffffffffffffff163461c35190607b6040516024016100a39190610483565b6040516020818303038152906040527f24ccab8f000000000000000000000000000000000000000000000000000000007bffffffffffffffffffffffffffffffffffffffffffffffffffffffff19166020820180517bffffffffffffffffffffffffffffffffffffffffffffffffffffffff838183161783525050505060405161012d919061052b565b600060405180830381858888f193505050503d806000811461016b576040519150601f19603f3d011682016040523d82523d6000602084013e610170565b606091505b505090507fb6caad5b328a3de9a49b44605241a4b72f6f1aa955829d12e37decfd84a0b8ca816040516101a3919061055d565b60405180910390a15050565b60008173ffffffffffffffffffffffffffffffffffffffff166040516024016040516020818303038152906040527f1dcc85ae000000000000000000000000000000000000000000000000000000007bffffffffffffffffffffffffffffffffffffffffffffffffffffffff19166020820180517bffffffffffffffffffffffffffffffffffffffffffffffffffffffff8381831617835250505050604051610258919061052b565b6000604051808303816000865af19150503d8060008114610295576040519150601f19603f3d011682016040523d82523d6000602084013e61029a565b606091505b505090507fb6caad5b328a3de9a49b44605241a4b72f6f1aa955829d12e37decfd84a0b8ca816040516102cd919061055d565b60405180910390a15050565b600080fd5b600073ffffffffffffffffffffffffffffffffffffffff82169050919050565b6000610309826102de565b9050919050565b610319816102fe565b811461032457600080fd5b50565b60008135905061033681610310565b92915050565b600060208284031215610352576103516102d9565b5b600061036084828501610327565b91505092915050565b6000610374826102de565b9050919050565b61038481610369565b811461038f57600080fd5b50565b6000813590506103a18161037b565b92915050565b6000602082840312156103bd576103bc6102d9565b5b60006103cb84828501610392565b91505092915050565b600082825260208201905092915050565b7f63616c6c20666f6f000000000000000000000000000000000000000000000000600082015250565b600061041b6008836103d4565b9150610426826103e5565b602082019050919050565b6000819050919050565b600060ff82169050919050565b6000819050919050565b600061046d61046861046384610431565b610448565b61043b565b9050919050565b61047d81610452565b82525050565b6000604082019050818103600083015261049c8161040e565b90506104ab6020830184610474565b92915050565b600081519050919050565b600081905092915050565b60005b838110156104e55780820151818401526020810190506104ca565b838111156104f4576000848401525b50505050565b6000610505826104b1565b61050f81856104bc565b935061051f8185602086016104c7565b80840191505092915050565b600061053782846104fa565b915081905092915050565b60008115159050919050565b61055781610542565b82525050565b6000602082019050610572600083018461054e565b9291505056fea2646970667358221220c3f358f82d26015880016fb9a7c09dfde6e3edbb1c49a59f567b926bed2ee93964736f6c634300080f0033",
  "immutableReferences": {},
  "source": "// SPDX-License-Identifier: MIT\n\npragma solidity >=0.7.0 <0.9.0;\n\ncontract Receiver {\n    string public message;\n    uint256 public x;\n    event Received(address caller, uint256 amount, string message);\n\n    // receive() external payable {}\n\n    //this fallback function can receive ether and emit event when received\n    fallback() external payable {\n        emit Received(msg.sender, msg.value, \"Fallback was called\");\n    }\n\n    //function for initializaing the values\n    function foo(string memory _message, uint256 _x)\n        external\n        payable\n        returns (uint256)\n    {\n        message = _message;\n        x = _x;\n        return x;\n    }\n}\n\ncontract Caller {\n    event Response(bool success);\n\n    // Let's imagine that contract B does not have the source code for\n    // contract A, but we do know the address of A and the function to call.\n    function testCallFoo(address payable _addr) public payable {\n        // You can send ether and specify a custom gas amount\n        (bool success, ) = _addr.call{value: msg.value, gas: 50001}(\n            abi.encodeWithSignature(\"foo(string,uint256)\", \"call foo\", 123)\n        );\n        emit Response(success);\n    }\n\n    // Calling a function that does not exist triggers the fallback function.\n    function testCallDoesNotExist(address _addr) public {\n        (bool success, ) = _addr.call(\n            abi.encodeWithSignature(\"doesNotExist()\")\n        );\n        emit Response(success);\n    }\n}\n",
  "sourcePath": "/home/himanshu/Practice/Blockchain_Solidity/packages/CallExample/contracts/CallExample.sol",
  "compiler": {
    "name": "solc",
    "version": "0.8.15+commit.e14f2714.Emscripten.clang"
  },
  "schemaVersion": "3.4.8",
  "updatedAt": "2022-09-13T08:00:51.650Z",
  "networkType": "ethereum",
  "devdoc": {
    "kind": "dev",
    "methods": {},
    "version": 1
  },
  "userdoc": {
    "kind": "user",
    "methods": {},
    "version": 1
  }
}