{
  "contractName": "Receiver",
  "abi": [
    {
      "anonymous": false,
      "inputs": [
        {
          "indexed": false,
          "internalType": "address",
          "name": "caller",
          "type": "address"
        },
        {
          "indexed": false,
          "internalType": "uint256",
          "name": "amount",
          "type": "uint256"
        },
        {
          "indexed": false,
          "internalType": "string",
          "name": "message",
          "type": "string"
        }
      ],
      "name": "Received",
      "type": "event"
    },
    {
      "stateMutability": "payable",
      "type": "fallback",
      "payable": true
    },
    {
      "inputs": [],
      "name": "message",
      "outputs": [
        {
          "internalType": "string",
          "name": "",
          "type": "string"
        }
      ],
      "stateMutability": "view",
      "type": "function",
      "constant": true
    },
    {
      "inputs": [],
      "name": "x",
      "outputs": [
        {
          "internalType": "uint256",
          "name": "",
          "type": "uint256"
        }
      ],
      "stateMutability": "view",
      "type": "function",
      "constant": true
    },
    {
      "inputs": [
        {
          "internalType": "string",
          "name": "_message",
          "type": "string"
        },
        {
          "internalType": "uint256",
          "name": "_x",
          "type": "uint256"
        }
      ],
      "name": "foo",
      "outputs": [
        {
          "internalType": "uint256",
          "name": "",
          "type": "uint256"
        }
      ],
      "stateMutability": "payable",
      "type": "function",
      "payable": true
    }
  ],
  "bytecode": "0x608060405234801561001057600080fd5b5061084f806100206000396000f3fe6080604052600436106100385760003560e01c80630c55699c1461007457806324ccab8f1461009f578063e21f37ce146100cf57610039565b5b7f59e04c3f0d44b7caf6e8ef854b61d9a51cf1960d7a88ff6356cc5e946b4b5832333460405161006a929190610269565b60405180910390a1005b34801561008057600080fd5b506100896100fa565b60405161009691906102a5565b60405180910390f35b6100b960048036038101906100b49190610446565b610100565b6040516100c691906102a5565b60405180910390f35b3480156100db57600080fd5b506100e4610124565b6040516100f19190610519565b60405180910390f35b60015481565b600082600090816101119190610747565b5081600181905550600154905092915050565b600080546101319061056a565b80601f016020809104026020016040519081016040528092919081815260200182805461015d9061056a565b80156101aa5780601f1061017f576101008083540402835291602001916101aa565b820191906000526020600020905b81548152906001019060200180831161018d57829003601f168201915b505050505081565b600073ffffffffffffffffffffffffffffffffffffffff82169050919050565b60006101dd826101b2565b9050919050565b6101ed816101d2565b82525050565b6000819050919050565b610206816101f3565b82525050565b600082825260208201905092915050565b7f46616c6c6261636b207761732063616c6c656400000000000000000000000000600082015250565b600061025360138361020c565b915061025e8261021d565b602082019050919050565b600060608201905061027e60008301856101e4565b61028b60208301846101fd565b818103604083015261029c81610246565b90509392505050565b60006020820190506102ba60008301846101fd565b92915050565b6000604051905090565b600080fd5b600080fd5b600080fd5b600080fd5b6000601f19601f8301169050919050565b7f4e487b7100000000000000000000000000000000000000000000000000000000600052604160045260246000fd5b610327826102de565b810181811067ffffffffffffffff82111715610346576103456102ef565b5b80604052505050565b60006103596102c0565b9050610365828261031e565b919050565b600067ffffffffffffffff821115610385576103846102ef565b5b61038e826102de565b9050602081019050919050565b82818337600083830152505050565b60006103bd6103b88461036a565b61034f565b9050828152602081018484840111156103d9576103d86102d9565b5b6103e484828561039b565b509392505050565b600082601f830112610401576104006102d4565b5b81356104118482602086016103aa565b91505092915050565b610423816101f3565b811461042e57600080fd5b50565b6000813590506104408161041a565b92915050565b6000806040838503121561045d5761045c6102ca565b5b600083013567ffffffffffffffff81111561047b5761047a6102cf565b5b610487858286016103ec565b925050602061049885828601610431565b9150509250929050565b600081519050919050565b60005b838110156104cb5780820151818401526020810190506104b0565b838111156104da576000848401525b50505050565b60006104eb826104a2565b6104f5818561020c565b93506105058185602086016104ad565b61050e816102de565b840191505092915050565b6000602082019050818103600083015261053381846104e0565b905092915050565b7f4e487b7100000000000000000000000000000000000000000000000000000000600052602260045260246000fd5b6000600282049050600182168061058257607f821691505b6020821081036105955761059461053b565b5b50919050565b60008190508160005260206000209050919050565b60006020601f8301049050919050565b600082821b905092915050565b6000600883026105fd7fffffffffffffffffffffffffffffffffffffffffffffffffffffffffffffffff826105c0565b61060786836105c0565b95508019841693508086168417925050509392505050565b6000819050919050565b600061064461063f61063a846101f3565b61061f565b6101f3565b9050919050565b6000819050919050565b61065e83610629565b61067261066a8261064b565b8484546105cd565b825550505050565b600090565b61068761067a565b610692818484610655565b505050565b5b818110156106b6576106ab60008261067f565b600181019050610698565b5050565b601f8211156106fb576106cc8161059b565b6106d5846105b0565b810160208510156106e4578190505b6106f86106f0856105b0565b830182610697565b50505b505050565b600082821c905092915050565b600061071e60001984600802610700565b1980831691505092915050565b6000610737838361070d565b9150826002028217905092915050565b610750826104a2565b67ffffffffffffffff811115610769576107686102ef565b5b610773825461056a565b61077e8282856106ba565b600060209050601f8311600181146107b1576000841561079f578287015190505b6107a9858261072b565b865550610811565b601f1984166107bf8661059b565b60005b828110156107e7578489015182556001820191506020850194506020810190506107c2565b868310156108045784890151610800601f89168261070d565b8355505b6001600288020188555050505b50505050505056fea2646970667358221220555c84efa7cfd567703e7b3fa9605da9a3e2a2617dba43b29e516795b37ac2a364736f6c634300080f0033",
  "immutableReferences": {},
  "source": "// SPDX-License-Identifier: MIT\n\npragma solidity >=0.7.0 <0.9.0;\n\ncontract Receiver {\n    string public message;\n    uint256 public x;\n    event Received(address caller, uint256 amount, string message);\n\n    // receive() external payable {}\n\n    //this fallback function can receive ether and emit event when received\n    fallback() external payable {\n        emit Received(msg.sender, msg.value, \"Fallback was called\");\n    }\n\n    //function for initializaing the values\n    function foo(string memory _message, uint256 _x)\n        external\n        payable\n        returns (uint256)\n    {\n        message = _message;\n        x = _x;\n        return x;\n    }\n}\n\ncontract Caller {\n    event Response(bool success);\n\n    // Let's imagine that contract B does not have the source code for\n    // contract A, but we do know the address of A and the function to call.\n    function testCallFoo(address payable _addr) public payable {\n        // You can send ether and specify a custom gas amount\n        (bool success, ) = _addr.call{value: msg.value, gas: 50001}(\n            abi.encodeWithSignature(\"foo(string,uint256)\", \"call foo\", 123)\n        );\n        emit Response(success);\n    }\n\n    // Calling a function that does not exist triggers the fallback function.\n    function testCallDoesNotExist(address _addr) public {\n        (bool success, ) = _addr.call(\n            abi.encodeWithSignature(\"doesNotExist()\")\n        );\n        emit Response(success);\n    }\n}\n",
  "sourcePath": "/home/himanshu/Practice/Blockchain_Solidity/packages/CallExample/contracts/CallExample.sol",
  "compiler": {
    "name": "solc",
    "version": "0.8.15+commit.e14f2714.Emscripten.clang"
  },
  "schemaVersion": "3.4.8",
  "updatedAt": "2022-09-13T07:59:51.457Z",
  "networkType": "ethereum",
  "devdoc": {
    "kind": "dev",
    "methods": {},
    "version": 1
  },
  "userdoc": {
    "kind": "user",
    "methods": {},
    "version": 1
  }
}