{
  "contractName": "TestDelegateCall",
  "abi": [
    {
      "inputs": [],
      "name": "num",
      "outputs": [
        {
          "internalType": "uint256",
          "name": "",
          "type": "uint256"
        }
      ],
      "stateMutability": "view",
      "type": "function",
      "constant": true
    },
    {
      "inputs": [],
      "name": "sender",
      "outputs": [
        {
          "internalType": "address",
          "name": "",
          "type": "address"
        }
      ],
      "stateMutability": "view",
      "type": "function",
      "constant": true
    },
    {
      "inputs": [],
      "name": "value",
      "outputs": [
        {
          "internalType": "uint256",
          "name": "",
          "type": "uint256"
        }
      ],
      "stateMutability": "view",
      "type": "function",
      "constant": true
    },
    {
      "inputs": [
        {
          "internalType": "uint256",
          "name": "_num",
          "type": "uint256"
        }
      ],
      "name": "setVars",
      "outputs": [],
      "stateMutability": "payable",
      "type": "function",
      "payable": true
    }
  ],
  "bytecode": "0x608060405234801561001057600080fd5b50610289806100206000396000f3fe60806040526004361061003f5760003560e01c80633fa4f245146100445780634e70b1dc1461006f5780636466414b1461009a57806367e404ce146100b6575b600080fd5b34801561005057600080fd5b506100596100e1565b604051610066919061017e565b60405180910390f35b34801561007b57600080fd5b506100846100e7565b604051610091919061017e565b60405180910390f35b6100b460048036038101906100af91906101ca565b6100ed565b005b3480156100c257600080fd5b506100cb61013f565b6040516100d89190610238565b60405180910390f35b60025481565b60005481565b8060008190555033600160006101000a81548173ffffffffffffffffffffffffffffffffffffffff021916908373ffffffffffffffffffffffffffffffffffffffff1602179055503460028190555050565b600160009054906101000a900473ffffffffffffffffffffffffffffffffffffffff1681565b6000819050919050565b61017881610165565b82525050565b6000602082019050610193600083018461016f565b92915050565b600080fd5b6101a781610165565b81146101b257600080fd5b50565b6000813590506101c48161019e565b92915050565b6000602082840312156101e0576101df610199565b5b60006101ee848285016101b5565b91505092915050565b600073ffffffffffffffffffffffffffffffffffffffff82169050919050565b6000610222826101f7565b9050919050565b61023281610217565b82525050565b600060208201905061024d6000830184610229565b9291505056fea26469706673582212200c124cd6bad1b23b634cd451e1a18723b2f31f87c934d4909917fb17623ff31a64736f6c634300080f0033",
  "immutableReferences": {},
  "source": "// SPDX-License-Identifier: MIT\n\npragma solidity >=0.7.0 <0.9.0;\n\n//we will use this contract for testing the delegate call\ncontract TestDelegateCall {\n    uint public num;\n    address public sender;\n    uint public value;\n\n    function setVars(uint _num) external payable {\n        num = _num;\n        sender = msg.sender;\n        value = msg.value;\n    }\n}\n\n// DELEGATECALL basically says that I'm a contract and I'm allowing (delegating) \n// you to do whatever you want to my storage\ncontract DelegateCall {\n    uint public num;\n    address public sender;\n    uint public value;\n\n    function setVars(address _addr, uint _num) external payable {\n        (bool success, ) =_addr.delegatecall(\n            abi.encodeWithSignature(\"setVars(uint256)\", _num)\n            );\n\n           \n        require(success, \"delegate failed\");\n    }\n}",
  "sourcePath": "/home/himanshu/Practice/Blockchain_Solidity/packages/DelegateCallExample/contracts/DelegateCall.sol",
  "compiler": {
    "name": "solc",
    "version": "0.8.15+commit.e14f2714.Emscripten.clang"
  },
  "schemaVersion": "3.4.8",
  "updatedAt": "2022-09-13T08:01:03.175Z",
  "networkType": "ethereum",
  "devdoc": {
    "kind": "dev",
    "methods": {},
    "version": 1
  },
  "userdoc": {
    "kind": "user",
    "methods": {},
    "version": 1
  }
}